:020000040800F2
:1000000000400020E5200008D5340008D93400085D
:1000100000000000000000000000000000000000E0
:10002000000000000000000000000000F1340008A3
:100030000000000000000000F3340008F534000860
:100040005521000855210008CDED00085521000874
:100050005521000891D7000855210008B9EA000889
:100060005521000855210008A1EA00085521000883
:10007000056F00085521000855210008552100088A
:1000800055210008552100080000000055210008F6
:10009000552100083DF1000839910008552100085C
:1000A0005521000855210008552100085521000858
:1000B00091EB0008000000005521000857210008BE
:0400C00049020008E9
:1000C400BFF34F8F024A034BDA60BFF34F8FFEE753
:1000D4000400FA0500ED00E082B06B46DA1D00234F
:1000E40013701378032B03D813780133DBB2F7E7CB
:1000F40002B0704770B505000A4C0B4B1B892B42AC
:1001040001D001200DE0013CFFF7E6FF002CF4D103
:10011400FFF7E2FF90231022DB059A61FFF7DCFF73
:10012400200070BD214E0000003001400120074B2B
:10013400DA68024209D1DA680018D20605D4D86810
:1001440004231840421E9041181A704700200240B0
:1001540070B505000220FFF7CDFF002801D1002073
:100164000AE0064C01202570FFF7C4FF0028F6D0F2
:1001740002202378FFF7BEFF70BDC0460C3001405B
:1001840010B5B024FFF7D2FF2403012805D1002CB9
:1001940005D0FFF7CBFF013CF7E7002C00D1052089
:1001A40010BD9023F7B510220127DB050F701A85C7
:1001B40004000E00FFF790FF0320FFF7C9FF00289B
:1001C40001D100203AE0200CC0B2FFF7C1FF0028A3
:1001D400F7D0200AC0B2FFF7BBFF0028F1D0E0B28D
:1001E400FFF7B6FF0028ECD00024250001976B46EA
:1001F4001B79134F3370002301203B70FFF77AFF04
:100204000023984202D033703B78DBB23278002A64
:100214000BD122000832002C02D11D001400E6E7A5
:10022400A34014001D43202AE1D1FFF755FF90237A
:100234001022DB059A61FFF74FFF2800FEBDC04680
:100244000C300140F0B585B00093424B98427ED10A
:10025400414B99427BD102254027404CFFF790FF48
:10026400042872D13E4E33692B4333617461336980
:100274003B433361FFF784FF3369AB43336101963A
:10028400042862D180231B01E418364B9C42E5D13B
:1002940080252D0102ABDE1C0123032733703100BE
:1002A4002800FFF77EFF33780400002B05D0013FC0
:1002B400FFB2002FF3D1002411E0032731002800FE
:1002C400FFF76FFF3378002B04D1844207D001235A
:1002D400337004E0013FFFB2002FEFD1EBE7337836
:1002E400002B32D10393FFF74BFF04282DD10122B9
:1002F400019B1B4E1B691343019A136180231B0549
:10030400A2B2EB181A80FFF73BFF04280ED1164B5C
:10031400240CEB180393039B1C80FFF731FF01228D
:10032400336993433361042805D00EE00122336915
:100334009343336109E0009B0435013B0093002B98
:1003440003D080239B029D42A4D1FFF7B9FE05B0E0
:10035400F0BDC04675E3094B42F06A81000800080D
:0C0364000020024000F801080200000820
:1008000002B4714649084900095C49008E4402BCA3
:100810007047C04603B47146490840004900095A70
:1008200049008E4403BC7047002243088B4274D3B6
:1008300003098B425FD3030A8B4244D3030B8B42E1
:1008400028D3030C8B420DD3FF22090212BA030CEA
:100850008B4202D31212090265D0030B8B4219D3CB
:1008600000E0090AC30B8B4201D3CB03C01A5241EB
:10087000830B8B4201D38B03C01A5241430B8B4233
:1008800001D34B03C01A5241030B8B4201D30B031C
:10089000C01A5241C30A8B4201D3CB02C01A524143
:1008A000830A8B4201D38B02C01A5241430A8B4206
:1008B00001D34B02C01A5241030A8B4201D30B02EF
:1008C000C01A5241CDD2C3098B4201D3CB01C01A09
:1008D000524183098B4201D38B01C01A5241430913
:1008E0008B4201D34B01C01A524103098B4201D301
:1008F0000B01C01A5241C3088B4201D3CB00C01A6E
:10090000524183088B4201D38B00C01A52414308E5
:100910008B4201D34B00C01A5241411A00D201460A
:10092000524110467047FFE701B5002000F0F0F893
:1009300002BDC0460029F7D076E7704703460B4357
:100940007FD4002243088B4274D303098B425FD3C8
:10095000030A8B4244D3030B8B4228D3030C8B42F4
:100960000DD3FF22090212BA030C8B4202D31212DA
:10097000090265D0030B8B4219D300E0090AC30BAF
:100980008B4201D3CB03C01A5241830B8B4201D35C
:100990008B03C01A5241430B8B4201D34B03C01A45
:1009A0005241030B8B4201D30B03C01A5241C30ABD
:1009B0008B4201D3CB02C01A5241830A8B4201D32E
:1009C0008B02C01A5241430A8B4201D34B02C01A18
:1009D0005241030A8B4201D30B02C01A5241CDD2BD
:1009E000C3098B4201D3CB01C01A524183098B4208
:1009F00001D38B01C01A524143098B4201D34B01F1
:100A0000C01A524103098B4201D30B01C01A524153
:100A1000C3088B4201D3CB00C01A524183088B42DA
:100A200001D38B00C01A524143088B4201D34B00C3
:100A3000C01A5241411A00D2014652411046704735
:100A40005DE0CA0F00D04942031000D3404253403A
:100A500000229C4603098B422DD3030A8B4212D3FA
:100A6000FC22890112BA030A8B420CD3890192112C
:100A70008B4208D3890192118B4204D389013AD069
:100A8000921100E08909C3098B4201D3CB01C01A3E
:100A9000524183098B4201D38B01C01A5241430951
:100AA0008B4201D34B01C01A524103098B4201D33F
:100AB0000B01C01A5241C3088B4201D3CB00C01AAC
:100AC000524183088B4201D38B00C01A5241D9D2C4
:100AD00043088B4201D34B00C01A5241411A00D245
:100AE0000146634652415B10104601D34042002B41
:100AF00000D54942704763465B1000D3404201B5C0
:100B0000002000F005F802BD0029F8D016E7704774
:100B10007047C0468446081C6146FFE71FB500F0D9
:100B200047FB002801D40021C8421FBD10B500F0CA
:100B3000D3FA4042013010BD10B500F039FB002857
:100B400001DB002010BD012010BDC04610B500F033
:100B50002FFB002801DD002010BD012010BDC04684
:100B600010B500F0E1FA002801DC002010BD0120E2
:100B700010BDC04610B500F0D7FA002801DA0020F9
:100B800010BD012010BDC0469E2110B5C905041C32
:100B9000FFF7F0FF002803D1201C00F0E7FD10BD97
:100BA0009E21201CC90500F05BFC00F0DFFD8023C6
:100BB0001B069C466044F2E7F8B54A024302440033
:100BC0004E00C50F240E28009B09360EC90F92094E
:100BD0008D4259D0A01B002800DC8DE0002E1AD1D8
:100BE000002A00D079E05A0704D00F221A40042AC4
:100BF00000D004335A0138D50134FF2C00D189E0EC
:100C000028009B015B0AE4B25B02E4055B0A234314
:100C1000C0071843F8BDFF2CE5D08021C9040A4362
:100C20001B2800DD89E016002021C640081A8240FA
:100C3000511E8A4132439B1A5A0114D59B019E09C9
:100C4000300001F031FA05388640844265DC041B2F
:100C5000330020200134E340041BA640721E96415D
:100C600000243343BFE75A07BFD1DF082800FF2C19
:100C70002FD1002F00D187E08022D20313003B4305
:100C80005B025B0AFF24BFE7A11B002949DD002EA0
:100C900029D0FF2CA7D08026F60432431B2900DD83
:100CA0008DE017002026CF40711A8A40511E8A41DC
:100CB0003A439B185A01D6D50134FF2C64D0012247
:100CC00076491A405B080B4013438CE7031ECAD1D8
:100CD00000207B025B0AE4B296E701380028AAD024
:100CE000FF2C9DD17FE7002A00D17CE70139002944
:100CF000DFD0FF2CD2D176E7002820D1601CC0B213
:100D0000012853DD80279E1AFF0437402FD0D61AC2
:100D10000D0095E72800002376E7614B241A334045
:100D200061E700294DD1611CCEB2012E2FDDFF29D4
:100D30002AD09B185B080C0055E701227BE7002CAA
:100D40001BD1002B5BD0C04300280CD0FF2E7ED0DF
:100D50001B2800DD92E01D002024C540201A83409E
:100D6000581E83412B43D31A34000D0064E7002E34
:100D700000D065E700200024ABE7FF2E67D0802479
:100D8000E40440422343E3E7FF2400233CE7002C34
:100D900061D1002B7ED0002A00D124E79B185A0194
:100DA00000D460E73E4A0C0013401CE7002C1ED123
:100DB000002B2FD1002A66D013000D0013E701226B
:100DC00077E7002C1FD1002B5AD0C94300290BD044
:100DD000FF2E50D01B295FDC1F002024CF40611A5A
:100DE0008B40591E8B413B439B18340062E7002B1C
:100DF0001CD1002A4AD013000D00FF24F3E6130093
:100E000034000D00EFE6FF2E35D08024E404494283
:100E10002343DFE7002A00D1E5E68027981AFF0484
:100E2000074000D152E7D31A0D00DCE6FF24002A68
:100E300000D1D8E68020DB08C003034204D0D208EA
:100E4000024201D113000D00DB00FF24CBE61300AA
:100E5000FF240D00C7E6002B0DD0FF24002A00D18F
:100E6000C1E68021DB08C9030B42EDD0D2080A425B
:100E7000EAD11300E8E71300FF24B4E6012372E788
:100E800013003400AFE60027002022E7802700206F
:100E9000FF03F1E61300A6E60123A5E7FFFFFF7DB0
:100EA000FFFFFFFBF0B5564644465F464D46F0B4A3
:100EB00044024600C70F83B08846650A360EBA461C
:100EC0003DD0FF2E22D00023EC00802599469B4682
:100ED000ED0425437F3E43465C025800DB0F640A65
:100EE000000E984636D0FF2830D080230021E40041
:100EF000DB041C437F38301A0190484642460843C1
:100F0000724E800030587A4013008746002D44D13D
:100F100008239946063B9B46DDE70122FF2000247B
:100F20001A406402C305640AD2071C43144320001C
:100F300003B03CBC90469946A246AB46F0BD002D9E
:100F400020D104239946033B9B46C4E7002C17D1CC
:100F5000022102E0002C0AD10121321A01924A46F4
:100F600043460A435A48920082587B4097462000E5
:100F700001F09AF8431F76309C4040420021BAE7C6
:100F80000321B8E7280001F08FF8431F9D4000239C
:100F90007630464299469B469DE70C239946093B8D
:100FA0009B4698E780240022E403FF20B9E7002451
:100FB000C2468B465A465346022AAED0032A7DD0FB
:100FC000012A31D1012200201A400024A9E7012280
:100FD000101A1B2856DD1A4000200024A1E78023A8
:100FE000DB031D424BD18023DB032B435C02640AED
:100FF0003A00FF2095E76D016001854230D2019AE9
:101000000024013A01921B220127290064006D008F
:10101000002901DBA84201D82D1A3C43013A002ADD
:10102000F3D16A1E95412C4301987F300028CEDD14
:10103000620704D00F222240042A00D00434220187
:1010400003D5244A019814408030FE2800DD64E76F
:101050000122A401640AC0B21A4062E72C00A9E789
:101060002D1A1A220124CFE76B02BCD5002480235D
:10107000DB031C436402640A4246FF2051E71C4222
:10108000B3D1F4E721002022C140101A8440621E2F
:1010900094410C43620704D00F222240042A00D05E
:1010A0000434620104D5012201201A40002438E7EB
:1010B0000122A401640A1A40002032E78023DB03E6
:1010C0001C436402640A5246FF202AE78C09010887
:1010D000CC090108FFFFFFF7430270B542004C0046
:1010E0005D0AC30F4802120E460A240EC90FFF2ADA
:1010F0000FD0FF2C11D00120A24200D070BDB5420C
:10110000FCD18B420DD0002AF8D12800431E984113
:10111000F4E70120002DF1D1EBE70120002EEDD105
:10112000E9E70020EAE7C0464302F0B542005D0A65
:10113000C30F4802440A4800120E000EC90FFF2ACE
:101140001FD0FF2822D0002A09D16E426E4100280C
:101150000FD1002C0DD10020002D09D005E0002872
:1011600001D1002C01D08B4213D0584201231843E7
:10117000F0BD002EF7D048424141012049420843CA
:10118000F6E7002DDDD002204042F1E7002CDAD056
:10119000F9E78242E9DC04DBA542E6D80020A5425B
:1011A000E6D25842434101205B421843E0E7C04683
:1011B0004302F0B542004C005E0AC30F4802120E13
:1011C000450A240EC90FFF2A17D0FF2C19D0002A78
:1011D0000BD170427041002C17D0002807D0484234
:1011E0004141012049420843F0BD002C13D08B42FD
:1011F00014D0584201231843F6E70220002EF3D101
:10120000E3E70220002DEFD1E1E7002DE5D100203A
:10121000002EE9D0EDE7002DE9D1EAE7A242E8DCB3
:1012200004DBAE42E5D80020AE42DDD25842434155
:1012300001205B421843D7E7F0B557464E46454676
:101240004300E0B446028846760A1F0EC40F002F02
:1012500047D0FF2F25D0002380259A469946F600D7
:10126000ED042E437F3F434642465D02D20F5B00B2
:101270006D0A1B0E904640D0FF2B39D080220020F3
:10128000ED00D20415437F3BFB1842465746591CDC
:1012900062408C4607430F2F5CD86F49BF00C95985
:1012A0008F46002E45D108239A46063B9946DAE739
:1012B000424602282DD0032800D1C3E0012800D0E7
:1012C000A2E0002500260240D4B27602ED05760A9F
:1012D0002E43E407264330001CBC90469946A246A4
:1012E000F0BD002E1AD104239A46033B9946BAE773
:1012F0002A00511E8A41901CC6E70120002DC3D050
:10130000280000F0D1FE431F76309D40434200206C
:10131000BAE70124FF2514400026D6E7300000F08C
:10132000C3FE431F9E400023763047429A469946AB
:1013300099E70C239A46093B994694E780260024B6
:10134000F603FF25C1E735004846B2E73500220025
:101350004846AEE72904090C0800370C3604360C61
:101360002C0C7943704367437443060C6418361998
:10137000B14203D980214902884647440004000C49
:10138000310409188D01681E8541890E2943350CE9
:10139000ED19AD010D43290104D5012369081D4054
:1013A00063460D4319007F31002925DD680704D00D
:1013B0000F202840042800D00435280103D52749F0
:1013C00080330D401900FE29A3DC0124AD016E0A13
:1013D0001440CDB279E78020C003064207D0054211
:1013E00005D128434602760A4446FF256DE70643A9
:1013F0007602760AFF2568E70124611A1B2905DDBC
:1014000014400025002660E76346CBE72E0020232A
:10141000CE40591A8D406B1E9D412E43730704D058
:101420000F233340042B00D00436730104D501246C
:1014300001251440002648E70124B601760A14402D
:10144000002542E780260124F6032E437602760A21
:101450001440FF2539E7C0460C0A0108FFFFFFF7DB
:10146000F8B54A024E0043024400240EC50F9B0902
:10147000360EC90F9209FF2E00D183E001204140B2
:10148000A01BA9425CD0002800DC95E0002E1CD1F6
:10149000002A00D081E05A0704D00F221A40042A03
:1014A00000D004335A013BD50134FF2C00D191E028
:1014B00001209B015B0AE4B205405B02E4055B0A84
:1014C000ED0723432B431800F8BDFF2CE3D0802108
:1014D000C9040A431B2800DD90E016002021C64005
:1014E000081A8240511E8A4132439B1A5A0115D56F
:1014F0009B019E09300000F0D7FD053886408442EC
:101500006CDC041B330020200134E340041BA640A4
:10151000721E964100243343BDE70D005A07BCD12B
:10152000DF0801231D40FF2C33D1002F00D190E0B4
:101530008022D20313003B435B025B0AFF24BCE71B
:1015400000284FDD002E2ED0FF2CA4D08025ED04E6
:101550002A431B2800DD97E016002025C640281AE4
:101560008240501E824132439B185A01D5D5013426
:10157000FF2C6DD001227B481A405B0803401343C7
:101580000D0088E7002A00D07AE777E7031EC5D16F
:1015900000257B025B0AE4B28FE701380028A4D063
:1015A000FF2C97D177E7002A00D174E70138002893
:1015B000DAD0FF2CCDD16EE7002821D1601CC0B25B
:1015C000012858DD80279E1AFF0437402FD0D61AF5
:1015D0000D008FE701231D4000236EE7624B241AA4
:1015E000334058E7002851D1601CC6B2012E33DDCC
:1015F000FF282DD09B185B0804004CE7012274E7FC
:10160000002C1AD0FF2E1FD08024E4044042234334
:101610001B2800DD96E01D002024C540201A8340D1
:10162000581E83412B43D31A34000D005EE7002E71
:1016300000D05FE700250024ABE7002B44D0C04377
:101640000028F0D0FF2EE3D11300FF240D0022E785
:101650000D00FF24002330E7002C5DD1002B7DD04E
:10166000002A00D117E79B185A0100D456E73E4ADA
:10167000040013400FE7002C1ED1002B2FD1002AAD
:1016800065D013000D0006E701226DE7002C1FD185
:10169000002B59D0C04300280BD0FF2E4FD01B2861
:1016A0005EDC1D002024C540201A8340581E834163
:1016B0002B439B18340058E7002B1CD1002A49D03B
:1016C00013000D00FF24E6E6130034000D00E2E6EF
:1016D000FF2E34D08024E40440422343DFE7002A75
:1016E00000D1D8E68027981AFF04074000D14DE7C3
:1016F000D31A0D00CFE6FF24002A00D1CBE68020CC
:10170000DB08C003034204D0D208024201D1130017
:101710000D00DB00FF24BEE6002B10D0FF24002AC2
:1017200000D1B8E68020DB08C003034203D0D20812
:10173000024200D11300DB000D00FF24ABE61300D2
:10174000FF24A8E601236EE713003400A3E6002778
:1017500000251EE780270025FF03E9E613009AE62F
:101760000123A6E7FFFFFF7DFFFFFFFB4302590AAE
:101770004300C20F1B0E00207E2B0EDD9D2B0DDCC7
:10178000802000040143952B0BDC9620C31AD9401E
:101790000B005842002A00D118007047034BD018A4
:1017A000FBE7963B99400B00F3E7C046FFFFFF7F46
:1017B00070B5002830D0C317C5185D40C40F28008D
:1017C00000F072FC9E231B1A962B0DDC9622D21A77
:1017D00095406A02520AD8B25202C005520AE40782
:1017E00002432243100070BD992B19DC9922D21AB2
:1017F0009540124A2A40690704D00F210D40042D5C
:1018000000D00432510103D50C4B1A409F231B1A00
:101810009201520AD8B2DFE7002400200022DBE761
:1018200005222E00121AB921D6402A00C91A8A4070
:10183000551EAA4135001543DBE7C046FFFFFFFBFD
:1018400070B5041E28D000F02FFC9E231B1A962B87
:101850000ADC9622D21A94406202520AD8B252028C
:10186000520AC005104370BD992B18DC9922D21A78
:101870009440114A2240610704D00F210C40042CEF
:1018800000D00432510103D50B4B1A409F231B1A81
:101890009201520AD8B2E2E700200022DFE70522D7
:1018A0002500121AB921D5402200C91A8A40541EB7
:1018B000A2412C001443DCE7FFFFFFFBF0B55646C6
:1018C0004D4644465F46F0B41D000E034C00CB0F5E
:1018D00087B0070092468146360B640D98466AD061
:1018E0006D4B9C4235D08022430F12041343F60007
:1018F0001E43C3009946694B00279C46002364445D
:1019000002932B0368001B0BED0F51469B46400DC5
:10191000009500D178E0604B98426CD05B46DA00CD
:101920004B0F802109040B4313439B465346D900B8
:101930005A4B9C46002360444246201A6A40924615
:1019400001901F430F2F00D9B0E05548BF00C05988
:101950008746374300D088E00023994602330827A2
:1019600000260293CDE74346B34649460093029BC7
:10197000009A9246022B00D0BFE10021534601227B
:10198000002689461A40444B002136030C0D2405DD
:10199000360B2643434C1B0526401E437600D207D8
:1019A000760816434846310007B03CBC904699463D
:1019B000A246AB46F0BD330003434FD0002E00D10A
:1019C000BCE1300000F070FB03000B3B1C2B00DD82
:1019D000ADE11D220100D31A08393A008F408E4034
:1019E000DA40B9461643304B00279C46002360443A
:1019F0004442029385E753465A4613432CD10023B1
:101A000000219B46023397E70B4320D05B46002B17
:101A100000D19EE1584600F047FB03000B3B1C2B16
:101A200000DD8FE102005946083A91408B461D21A6
:101A3000CB1A5146D9400B0059460B4351469B46A1
:101A40009140194B9C4660444042002374E70023B8
:101A500000219B4601336FE703236DE7002399467E
:101A600001330427002602934BE703230C2702933C
:101A700047E70122D51A382D00DCB0E153461A4061
:101A800000210023002689467EE700238026994610
:101A900000223603004B77E7FF07000001FCFFFF41
:101AA0004C0A0108FFFF0F80F30300005E4500D9D8
:101AB00072E100D16DE1019B4D46013B0193002392
:101AC000340002935B461E020B0E1E430B0203936F
:101AD000330C994633041B0C494620000093FEF753
:101AE000A3FE009B3700434306004946200098466A
:101AF000FEF720FF2C0C09040C43A04509D9E4197A
:101B0000731EA74200D95CE1A04500D859E1023E0E
:101B1000E4194346E41A49462000FEF785FE030017
:101B2000009A80465343494620009B46FEF702FF39
:101B30002A040904120C0A4393450DD94346D219CD
:101B4000013B974200D93AE1934500D837E102239F
:101B50005B429C46D219E0445B46D21A43463604A7
:101B600033439B460399180C0B0C1D000593090485
:101B70005B46090C0C001B041B0C444304915943A5
:101B80006B4368431B190D0CEB189C4203D980244E
:101B90006402A44660441C0C09041B04090C2018B0
:101BA0005D18824200D2DEE000D1D7E0161A029B17
:101BB0009C465D1BAC459B415B42F61AB74200D187
:101BC00006E149463000FEF72FFE009B0400434328
:101BD000494630009846FEF7ADFE2E0C09040E4330
:101BE000B04509D9F619631EB74200D9F3E0B045F4
:101BF00000D8F0E0023CF6194346F31A49461800B3
:101C00000293FEF711FE009B0600434349460298EB
:101C10009846FEF78FFE2D0409042D0C0D43A845B0
:101C200009D9ED19731EAF4200D9D6E0A84500D8F6
:101C3000D3E0023EED192404210043463143049EC3
:101C4000059A3000ED1A0B040C0C1B0C584366432C
:101C5000534354439A19030C9B189E4203D9802284
:101C60005202944664441A0C00041B04000C14191C
:101C70001B18A54250D34DD001231943964A019B0E
:101C800094466344002B00DCF3E64A0709D00F2298
:101C90000A40042A05D00A1D8A42894149428B44E0
:101CA00011005A46D20108D55A468C4B1A40934629
:101CB0008022D2009446019B6344894A934200DD0E
:101CC0005BE65A46C90850070843560251460122AE
:101CD0005B058146360B5B0D0A4055E680231B03EE
:101CE0001E4211D05A461A420ED15E461E4336039A
:101CF000360B2A0089467B4B46E6032B00D1E1E0F8
:101D0000012BBBD11A40BBE61E433603360B4246BD
:101D1000744B39E6002BB1D07D194A1EAF4252D91F
:101D20001100A542A8D1039A9A42A5D1A6E70300C3
:101D30003E00283B9E400023994654E600F0B4F94B
:101D4000203041E603005246283B9A40002193464A
:101D500077E6504600F0A8F920305EE6029B0026A8
:101D6000AB4200D323E7039E0299B4466144884600
:101D7000B045B6415B467642F619B218013B029176
:101D8000974213D290424FD800D18EE0161A9B464C
:101D90000DE7894500D28EE674084B46F6073500FC
:101DA0005B081D434B46DB0702938BE69742EDD160
:101DB0000399029CA142E5D93E1A9B46F7E6984654
:101DC000CAE61E00A5E6AC423ED874D0110053E727
:101DD0000121494252E71C000EE71E002BE71F2D90
:101DE0003CDC20230A0058465B1B9840EA4099409F
:101DF0000243481E81415E461143EE404B0709D025
:101E00000F230B40042B05D00B00191D99429B4159
:101E10005B42F61833023CD55346012200211A409A
:101E2000002601238946AFE502235B429C46039CC2
:101E3000E344A446029B63449846A045B6417642DB
:101E4000F6190293B218B1E603988A1E4100814246
:101E5000B6417642F619AD19039161E71F2252424D
:101E6000D31A5A46DA401300202D29D04022584672
:101E7000551BA8400143481E814107200B431840D1
:101E80000026002809D00F2200261A401900042A33
:101E9000BBD10B0070077602360BDB080343994673
:101EA000012253461A4000236EE502998D42BBD8A9
:101EB0009B4600267BE603989842C5D3110032E783
:101EC0000020D7E780265B4636031E433603360BD9
:101ED000009A8946034B57E5FF030000FFFFFFFE12
:101EE000FE070000FF0700004200120E511C4302D3
:101EF000C9B270B55D0AC40F012915DDE021890062
:101F00008C466D071B0B6244002128000D0D2D052A
:101F10002B431C4D52052B40520813435B00E40732
:101F20005B082343190070BD002A15D1002D1FD076
:101F3000280000F0B9F80A281DDC0B232A001B1A20
:101F4000DA4013000200153295400F4A1B03121AA3
:101F500052051B0B520DD7E7002D06D080221B0B1C
:101F6000120313436D07094ACEE7084A0023CBE763
:101F700000220023C8E703000B3B9D402B000025F7
:101F8000E3E7C046FFFF0F8089030000FF07000062
:101F90004B0070B55E0D0C03751C640A420F6D0595
:101FA0002243C90FC4006D0D012D2ADD3B4BF318F0
:101FB000FE2B1ADC002B42DD8001451EA841D20019
:101FC0001043620F0243500704D00F201040042832
:101FD00000D004328020C004104021D00133FF2BF8
:101FE00003D09201520ADBB201E0FF230022520229
:101FF000520ADB0513435B00C9075B080B4318005B
:1020000070BD002E07D01443EFD08020D200800492
:102010000243FF23D7E722430023002A03D00522EF
:10202000D208FF2B03D05202520ADBB2DFE7002AAC
:1020300032D08020C00302435202520AD7E7180070
:10204000173014DB8020000402431E20C01A1F2812
:102050000FDC2500124BF3189D406E1EB5419A40CF
:102060002B0013432200C2401A430023ABE7002396
:10207000D5E702256D42EB1A1500DD40202809D076
:10208000084BF3189A401443621E94412200002327
:102090002A4398E70022F6E70022A8E780FCFFFF2A
:1020A00082FCFFFFA2FCFFFF1C2101231B049842BE
:1020B00001D3000C10391B0A984201D3000A0839D9
:1020C0001B09984201D30009043902A2105C401890
:1020D0007047C04604030202010101010000000034
:1020E000000000001348854604200168090E1F22E5
:1020F000914205D110480121016010480021016082
:10210000002103E00E4B5B58435004310D480E4B49
:1021100042189A42F6D30D4A02E0002313600432BB
:102120000B4B9A42F9D301F0E9F90EF093F903F061
:102130005BFEFEE700400020181002400000014056
:10214000480B010800000020240500202405002081
:10215000CC2C0020FEE710B502F01AFC10BD0000E8
:1021600010B5024BDB68984710BDC0460800002040
:102170000022014B1A70704724050020014B18788B
:102180007047C04624050020014801307047C04612
:102190002405002070B5104C060021780020072986
:1021A00018D9651C280001F02BF92278AB5C002BB4
:1021B00003D1AB185B78002B02D00020207009E01F
:1021C000D9B28A4203D9595DF1540133F8E70023AB
:1021D0000120237070BDC0462405002070B5002486
:1021E000094B41181A785E1C884208D0FF2A06D095
:1021F0000478551CB45401300124EAB2F4E7002CF1
:1022000000D01A7070BDC0462405002010B50648E5
:1022100002F02CFA80200021000403F00FFA0020C5
:1022200003F0D8F810BDC0462406002010B5034BBB
:10223000034A0449044801F0AAFA10BD38000020FE
:10224000780000201C00002024060020802010B50B
:102250000121000403F0F2F9002003F0E9F88020E6
:102260000121000503F0EAF98020800502F01AFD43
:10227000012002F00BFD012002F0FCFC10BD1F2329
:1022800007B501A803701E3B4370837002F0F8FF8E
:1022900007BD10B5FFF7F3FF10BD1F2307B501A859
:1022A00003701E3B43700023837002F0E9FF07BDFB
:1022B00000207047F0B50027094B411888420CD028
:1022C0001C68084E621C1A6005783555802464002D
:1022D000A24200D11F600130F0E70020F0BDC046EF
:1022E000F80800200409002010B5FFF777FF002050
:1022F00010BD000010B5202814D0212825D1144B82
:102300001A780A701A68120A4A701A68120C8A70CF
:102310001A68120ECA701A790A715A794A719B7931
:102320008B7112E04A780C788B78120222431B04DE
:1023300013431A00CB781B061343054A13600B792D
:1023400013714B7953718B799371002010BDC04686
:102350000000002000207047122301480B807047C6
:1023600014050108042302480B8012307047C04650
:102370001405010810B5044C0A000448210001F0BE
:10238000F4FB200010BDC0469D0700208C0A010808
:1023900010B5044C0A000448210001F0E6FB2000BF
:1023A00010BDC0469D070020B10A010810B5044CBD
:1023B0000A000448210001F0D8FB200010BDC046EF
:1023C0009D070020C50A010810B5044C0A00044806
:1023D000210001F0CAFB200010BDC0469D0700206F
:1023E000D20A010810B5044C0A000448210001F08B
:1023F000BCFB200010BDC0469D070020DD0A01087F
:10240000704700000821054A13689BB20B43136014
:10241000136804399BB20B4313607047405C004063
:102420000421044A13689BB28B431360BF231B0231
:1024300013607047405C004010B5244C072800D062
:1024400020702078C0B205283DD8FEF7D9F9030BDB
:1024500012161F2A6368002B02D1FFF7E1FF32E05A
:10246000052331E0FFF7DCFF04232370033B6360A7
:102470002BE002236370013326E06378013BDBB27B
:1024800063706378002B20D104331DE01021104AC3
:1024900013689BB20B43136005232370DB18637032
:1024A00013E06378013BDBB263706278D2B2002A3A
:1024B0000BD1102006490B689BB283430B600623A7
:1024C0002370626001E00623237010BD8C0700209A
:1024D000405C004070477047BFF34F8F024A034B88
:1024E000DA60BFF34F8FFEE70400FA0500ED00E06D
:1024F0007047704730B585B001AC0121102003F062
:102500009DF8200003F0C6FA084B094D63600F23C5
:1025100023800023210028002381638003F07EFABA
:102520000821280003F0C6FA05B030BDFFFF000007
:1025300000100040012110B5054B1A8A8A431A8207
:102540000022D8625A62180003F0BCFA10BDC046DF
:102550000010004010B5054C0021200003F0B2FA35
:102560000122238A9343238210BDC04600100040FD
:10257000024B188A012318407047C04600100040E3
:1025800010B50348012102F04DFE002010BDC046E9
:1025900000540040A0220C4B120210B51A60040037
:1025A0001868FFF7C7FF2100084802F060FE002806
:1025B00006D0FFF7DDFF0028F5D08022044B1A700B
:1025C000FFF7C8FF002010BD4C0000200054004061
:1025D00094070020A0220C4B120210B51A600400D0
:1025E0001868FFF7A7FF2100084802F040FE002806
:1025F00006D1FFF7BDFF0028F5D08022044B1A70EA
:10260000FFF7A8FF002010BD4C0000200054004040
:10261000940700202A4B73B51B7806000D00002B91
:1026200008D180200002FFF7B5FF264C2378002B4D
:1026300007D038E00BF07EFA030000208342F0D090
:102640003DE0802292010092D42101221E4802F036
:10265000F7FD0220FFF7BEFF2378002B23D13100C6
:10266000194802F0FFFD4020FFF7B4FF2378002B4C
:1026700019D190239B010093802301229B04D42134
:10268000114802F0DDFD0420FFF7A4FF2378002BA2
:1026900009D10D4802F0E8FD28702020FFF79AFFCD
:1026A0002378002B02D0FFF76BFF08E020210648BB
:1026B00002F0E4FD0BF03EFA01235840C0B276BDB3
:1026C000D4000020940700200054004073B5060099
:1026D000802000020D00FFF75DFF1F4C2378002BC8
:1026E00031D180239B010093802301225B04D421FC
:1026F0001A4802F0A5FD0220FFF76CFF2378002B9B
:1027000021D13100154802F0ADFD8020FFF762FFB6
:102710002378002B17D10093802301229B04D4211E
:102720000E4802F08DFD0220FFF754FF2378002BA6
:1027300009D12900094802F095FD2020FFF74AFF42
:102740002378002B02D0FFF71BFF04E00348202171
:1027500002F094FD012076BD940700200054004053
:1027600037B56B46DD1D290004000F20FFF752FF2F
:1027700029002020FFF74EFF0300002083420CD0E9
:102780000F232978240119400C43E1B2203029702D
:10279000FFF79CFF431E9841C0B23EBD37B56B4664
:1027A000DC1D050021002020FFF734FF030000207E
:1027B00083421AD0012D0BD0854205D0022D14D1B1
:1027C00008222378934307E008222378934304E008
:1027D0000F2223789343073A134323702178202054
:1027E000FFF774FF431E9841C0B23EBD37B56B463C
:1027F000DC1D050021002020FFF70CFF0300002056
:1028000083420AD00723217820309943294321703D
:10281000FFF75CFF431E9841C0B23EBD37B56B4623
:10282000DD1D040029002320FFF7F4FE0300002033
:1028300083420CD030232978240199430C43E1B220
:1028400023302970FFF742FF431E9841C0B23EBDBE
:1028500073B56B469D1D040029002820FFF7DAFEA2
:10286000002801D1002032E06B46DE1D3100292016
:10287000FFF7D0FE0028F5D033782A781B021343E7
:102880001BB2236029002A20FFF7C4FE0028E9D0EC
:1028900031002B20FFF7BEFE0028E3D033782A78E2
:1028A0001B0213431BB2636029002C20FFF7B2FE0A
:1028B0000028D7D031002D20FFF7ACFE0028D1D062
:1028C000012033782A781B0213431BB2A36076BD24
:1028D00010B501003120FFF79DFE431E9841C0B2A4
:1028E00010BD000010B50348012102F09BFC002040
:1028F00010BDC0460054004010B50400A0200B4B92
:1029000000021860FFF716FE2100094802F0AFFC34
:10291000002806D0FFF72CFE0028F5D08022054BBA
:102920001A70FFF717FE002010BDC04650000020AF
:10293000005400409507002010B50400A0200B4B68
:1029400000021860FFF7F6FD2100094802F08FFC35
:10295000002806D1FFF70CFE0028F5D08022054B99
:102960001A70FFF7F7FD002010BDC0465000002090
:1029700000540040950700202B4BF7B51B7804004E
:102980000E001500002B08D180200002FFF7B4FFD5
:10299000264F3B78002B07D039E00BF0CBF8030033
:1029A00000208342F0D03EE08022A4B29201009247
:1029B000210001221E4802F043FC0220FFF7BCFF69
:1029C0003B78002B23D13100194802F04BFC40200A
:1029D000FFF7B2FF3B78002B19D190239B010093A6
:1029E000802301229B042100114802F029FC0420CD
:1029F000FFF7A2FF3B78002B09D10D4802F034FC11
:102A000028702020FFF798FF3B78002B02D0FFF7BB
:102A100069FF08E02021064802F030FC0BF08AF83C
:102A200001235840C0B2FEBDD4000020950700200D
:102A300000540040F7B50500802000020F0016008A
:102A4000FFF75AFF1F4C2378002B32D180239B01C4
:102A500000938023ADB25B04012229001A4802F0E2
:102A6000EFFB0220FFF768FF2378002B21D139000C
:102A7000154802F0F7FB8020FFF75EFF2378002B5C
:102A800017D10093802301229B0429000E4802F0F5
:102A9000D7FB0220FFF750FF2378002B09D131002C
:102AA000094802F0DFFB2020FFF746FF2378002BC8
:102AB00002D0FFF717FF04E00348202102F0DEFBFD
:102AC0000120FEBD950700200054004037B56B463D
:102AD000DD1D04002A0020213220FFF74DFF0300F6
:102AE000002083420DD00F232A7824011A4014437A
:102AF000E2B2202132302A70FFF79CFF431E98413A
:102B0000C0B23EBD37B56B46DD1D002104002A0072
:102B10003C20FFF731FF002188420CD07F232A7828
:102B2000A4009A431443E2B23C202A70FFF782FFCC
:102B3000411E8841C1B208003EBD37B56B46DD1D60
:102B4000002104002A003C20FFF716FF00218842E4
:102B50000CD07F232A78E4011A401443E2B23C20CF
:102B60002A70FFF767FF411E8841C1B208003EBDD1
:102B700037B56B46DD1D04002A0001213C20FFF71C
:102B8000FBFE03000020834209D06401E2B2012170
:102B90003C302A70FFF74EFF431E9841C0B23EBD45
:102BA00037B56B46DD1D04002A0002213C20FFF7EB
:102BB000E3FE03000020834208D0220002213C30C3
:102BC0002C70FFF737FF431E9841C0B23EBD37B5AA
:102BD0006B46DD1D04002A0031213C20FFF7CCFEAE
:102BE0000023984203D02B78193323800123180047
:102BF0003EBD000073B56B469C1D060022002021DF
:102C00003220FFF7B9FE00283FD06B46DD1D2A00B9
:102C100023213220FFF7B0FE002836D023780F2181
:102C20001A008A4304D11A4A52788A431343237004
:102C3000012E12D0002E09D0022E26D10822237890
:102C4000934323702B78934313430DE02278104B6A
:102C50005A700F231340237007E008222378934310
:102C6000134323702B7893432B702278202132203A
:102C7000FFF7E0FE002808D02A7823213220FFF752
:102C8000D9FE431E9841C0B200E0002076BDC04688
:102C90009507002037B56B46DC1D0500220020217A
:102CA0003220FFF769FE0300002083420CD0227817
:102CB0000730824328400243202132202270FFF750
:102CC000B9FE431E9841C0B23EBD37B56B46DD1D0F
:102CD00004002A0023213220FFF74EFE03000020CB
:102CE00083420DD030232A7824019A431443E2B260
:102CF000232132302A70FFF79DFE431E9841C0B257
:102D00003EBD37B56B46DD1D04002A00232132206D
:102D1000FFF732FE0300002083420DD07F232A7884
:102D2000E4011A401443E2B2232132302A70FFF743
:102D300081FE431E9841C0B23EBD37B56B46DD1DD6
:102D400004002A0023213220FFF716FE0300002092
:102D500083420DD040232A78A4019A431443E2B25F
:102D6000232132302A70FFF765FE431E9841C0B21E
:102D70003EBD37B56B46DD1D04002A0021213220FF
:102D8000FFF7FAFD0300002083420DD004232A78C8
:102D9000A4009A431443E2B2212132302A70FFF793
:102DA00049FE431E9841C0B23EBD37B56B46DC1D9F
:102DB0000500220021213220FFF7DEFD0300002064
:102DC00083420BD00123227821219A432A433230B7
:102DD0002270FFF72FFE431E9841C0B23EBD37B5AB
:102DE0006B46DD1D04002A0021213220FFF7C4FDBF
:102DF0000300002083420DD002232A7864009A4306
:102E00001443E2B2212132302A70FFF713FE431E31
:102E10009841C0B23EBD37B56B46DD1D04002A00A7
:102E200021213220FFF7A8FD0300002083420DD0AE
:102E30003F232A78A4011A401443E2B22121323000
:102E40002A70FFF7F7FD431E9841C0B23EBD37B56B
:102E5000041E032C01D9002016E06B46DD1D2A005C
:102E600021213220FFF788FD0028F4D030232A7872
:102E700024019A431443E2B2212132202A70FFF741
:102E8000D9FD431E9841C0B23EBD37B56B46DD1D2E
:102E900004002A0021213220FFF76EFD03000020EC
:102EA00083420DD008232A78E4009A431443E2B207
:102EB000212132302A70FFF7BDFD431E9841C0B278
:102EC0003EBD37B56B46DD1D2A0004003921322096
:102ED000FFF752FD0022904246D02B78590602D4CB
:102EE0002270013240E0082099061FD504210342D8
:102EF0000DD00B4201D0C4230CE00121980701D56D
:102F0000C22302E00B422FD0C12323702BE00B42DF
:102F100003D044232370012226E00121980701D524
:102F20004223F2E70B421FD04123EEE70421034284
:102F30000CD00B4201D08423ECE70121980701D586
:102F40008223E2E70B420FD08123DEE70B4201D060
:102F50002170E0E702200121034201D0207002E04D
:102F60000B4201D021700A0010003EBD07B56B4630
:102F70003121DA1D3220FFF7FFFC431E9841C0B219
:102F80000EBD37B5031E042B21D16B46DC1D22007C
:102F90002E213220FFF7F0FC002801D10020B2E002
:102FA0001F2322782E211A4032202270FFF742FD83
:102FB0000028F3D0220024213220FFF7DDFC002876
:102FC000ECD04023227824219A43227021E000286B
:102FD00026D16B46DC1D220024213220FFF7CCFCD9
:102FE0000028DBD04023227824219A431A43322040
:102FF0002270FFF71FFD0028D0D022002E213220A2
:10300000FFF7BAFC0028C9D01F232E2122781A40CE
:1030100022703220FFF70EFD0028BFD0012072E0A1
:1030200001281FD16B46DC1D220024213220FFF72E
:10303000A3FC0028B2D0402522782421AA432A43A9
:1030400032202270FFF7F6FC0028A7D022002E21A4
:103050003220FFF791FC0028A0D01F2322781A40CD
:103060002A4348E0022820D16B46DC1D220024219F
:103070003220FFF781FC002890D0402322782421C1
:103080009A431A4332202270FFF7D4FC002885D0DF
:1030900022002E213220FFF76FFC002800D17DE7AF
:1030A0001F2322781A40613324E00120032B2AD108
:1030B0006B46DC1D220024213130FFF75DFC002827
:1030C00000D16BE74023227824219A431A4332200F
:1030D0002270FFF7AFFC002800D15FE722002E210D
:1030E0003220FFF749FC002800D157E71F23227840
:1030F0001A40A1331A432E2132202270FFF79AFC86
:10310000431E9841C0B23EBDF7B56B469E1D0400FC
:10311000320028213220FFF72FFC002801D10020A7
:1031200044E06B46DF1D3A0029213220FFF724FCE2
:103130000028F4D00F253B7832781B0213431BB2D2
:10314000DA172A40D3181B11236032002A213220BB
:10315000FFF712FC0028E2D03A002B213220FFF7C3
:103160000BFC0028DBD03B7832781B0213431BB2E8
:10317000DA172A40D3181B11636032002C21322049
:10318000FFF7FAFB0028CAD03A002D213220FFF7C2
:10319000F3FB0028C3D001203B7832781B021A438E
:1031A00013B2DA171540EB181B11A360FEBD73B5FF
:1031B0006B469C1D0600220004213C20FFF7DCFB2F
:1031C000002801D1002034E06B46DD1D2A000321D8
:1031D0003C20FFF7D1FB0028F4D02B7822781B028B
:1031E00013433380220008213C20FFF7C5FB002851
:1031F000E8D02A0007213C20FFF7BEFB0028E1D0E1
:103200002B7822781B0213437380220006213C2076
:10321000FFF7B2FB0028D5D02A0005213C20FFF79C
:10322000ABFB0028CED001202B7822781B02134361
:10323000B38076BD10B5020031213220FFF79CFB30
:10324000431E9841C0B210BD031C282800D9282372
:10325000024ADBB29B0098587047C0462C05010813
:1032600010B51549FDF7E8FFFA218905041CFDF7A3
:10327000A3FC0CF0EBFDFA218905FDF79DFC011C78
:10328000201CFEF7EDF80021041CFDF773FC00285C
:1032900003D0FC21201C890504E08023FC211B06AF
:1032A000E0188905FEF7DCF88321C905FDF7C4FFA6
:1032B000211CFDF7C1FF10BD83F9223EF7B50024A4
:1032C0000C4F061CA500E3B2311CE8590193FDF731
:1032D0003DFC002806D07D196968301CFDF72CFCE8
:1032E000002804D10134282CECD1002000E0019802
:1032F000FEBDC0462C050108F0B58FB003900491C7
:10330000101C0021141C05920193FDF715FC0028E8
:1033100006D080231B06E41801230594029300E0E5
:10332000029005A905980CF0DFFD061C0A20019B00
:103330005D1CEDB22C000300013CE4B2002C01D076
:103340005843F9E7FEF77CFA311CFDF775FFFDF7EE
:103350001BFC0A210700FDF767FA0A210600380066
:10336000FDF7E8FA04238B42894149427618019B14
:103370009C420ED030000A21FDF7DCFA3000CFB2BB
:103380000A21FDF751FA303706ABE7540600013445
:10339000EDE7002E05D0FE2105988905FDF70CFC10
:1033A00005902E23019A06AEB3540598FDF7ECFB69
:1033B000070038000A21FDF7BDFA3800CCB20A2117
:1033C000FDF732FA30346B1C0700DBB2745500286D
:1033D00001D01D00EDE7029A002A03D02D2202350C
:1033E000F254EBB2049A9818C0B2C21A013BDBB295
:1033F000F15C039CD2B2A154002BF6D10FB0F0BD0A
:10340000F0B50A000025154B1C88154B002A1CD06E
:103410008D1A465DFF251D401B0A1B026E40F518E4
:10342000ABB2082501261E40B44667465E10B3B213
:10343000002F02D00B4B5E40B3B2013DEDB2002D28
:10344000F0D1013AD2B20135E0E7002D00D01C1CCA
:1034500044544118240A4C70F0BDC046EC0A0108DF
:10346000FFFF000001A0FFFF0F23034018003730CB
:10347000092B01D8303318007047002382B0019027
:1034800001AA9A5CCA540133042BF9D102B07047E7
:103490000023CA5CC2540133042BFAD170470B7865
:1034A00003704B784370704782B06B46DA1D00237F
:1034B00013701378032B03D813780133DBB2F7E7CB
:1034C00002B07047024B8000C01800687047C046C9
:1034D000ACF7FF1F70470000BFF34F8F024A034B4A
:1034E000DA60BFF34F8FFEE70400FA0500ED00E05D
:1034F0007047704710B50BF0A9FD10BD012210B543
:10350000274C2368134323606168264B0B4063609C
:103510002168254B0B4023602168244B0B4023601E
:103520006168234B0B400F216360E36A8B43E362C6
:10353000216B204B0B402363636B93436363002336
:10354000A3600BF00FFF012828D111221A4B1A603B
:1035500063686360636863606268184B1340982215
:1035600063606368520313438022636023685204DC
:1035700013438022236092042168094B1142FBD03F
:1035800003215A688A435A605A6801390A435A60CB
:103590000C2263681340082BFBD100E0FEE710BD4E
:1035A000001002400CB8FF08FFFFF6FEFFFFFBFF14
:1035B000FFFFC0FFACFEFFFF00200240FF7FC0FF07
:1035C000030010B50400FC331B6E1B699847E378B9
:1035D0000020A37010BD10B58378C37004238370DE
:1035E000FC30036EDB689847002010BD0300FC33FD
:1035F000DB6D10B5DB69002B00D09847002010BDB3
:10360000002210B511004023040000F029FE8023A1
:1036100000221900200000F023FE002340221900A0
:10362000200000F038FE402280210023200000F01E
:1036300032FE0123207BA370FC34236E5B68984725
:10364000002010BD13B56946040000F071FA6B4606
:1036500019781F230B40012B0DD0002B06D0022B15
:103660000ED16946200000F006FA0EE069462000FF
:1036700000F0FCF809E06946200000F0DDF904E004
:103680007F232000994300F057FF002016BD000063
:10369000F8B504000D1E39D14378022B2BD1426BB3
:1036A000466AB24206D9921B4263816A92B200F026
:1036B000A9F835E0876B31003800FDF73BF90D1EA6
:1036C0000AD1BE4208D8E36B9F4205D20A0020000F
:1036D00000F098F8E56323E02300FC33DB6DDB6842
:1036E000002B04D0A278032A01D1200098472000A3
:1036F00000F0B1F814E0042B12D10A4E3168002911
:103700000ED0C9B200F072FF356009E00300FC334F
:10371000DB6D5B69002B03D08278032A00D19847C8
:103720000020F8BD9807002010B50400002922D120
:103730004378032B29D10200B832D369D068834281
:103740000AD91B1AD361116982B2984200D99AB280
:10375000200000F06EF818E02300FC33DB6D1B69DD
:10376000002B04D0A278032A01D120009847200022
:1037700000F067F809E00300FC33DB6D9B69002B68
:1037800003D08278032A00D19847002010BDF7B5F6
:103790000400250017001E000191FEF757FD019B54
:1037A000FC356B66EF652E66FEF72AFE200000F002
:1037B0002BFD2B6E1B689847200000F04BFF20006C
:1037C000FEF767FDF7BD10B50400FC34E36D1B6820
:1037D0009847236E9B689847002010BD030010B5E2
:1037E000FC33DB6D5B689847002010BD10B51300FB
:1037F00082634263022242700A00002100F04FFE01
:10380000002010BD10B513000A00002100F047FE93
:10381000002010BD13000200D83210B5043A5360E6
:103820001360032242700A00002100F0FAFD00201C
:1038300010BD10B513000A00002100F0F2FD0020B9
:1038400010BD042310B5437000231A00190000F0C6
:1038500026FE002010BD052310B5437000231A007A
:10386000190000F0DEFD002010BD000073B504005B
:1038700048780D00092800D9D5E0FCF7C1FFACCB92
:10388000D4BCD45E05D49D764B8818120138062826
:1038900000D9C8E0FCF7B4FF04121BC7C7C7C700B4
:1038A0002300FC335B6E01AE1B68207B3100984720
:1038B000EB88402B30D1383B33802DE02600FC369E
:1038C000F36D207B1B6A01A99847B06624E0D8B24B
:1038D000052800D9A7E02200E368FC32FCF790FF3E
:1038E00003070B0F1317D8B2536E5B6812E0D8B200
:1038F000536E9B680EE0D8B2536EDB680AE0D8B214
:10390000536E1B6906E0D8B2536E5B6902E0D8B211
:10391000536E9B6901A9984701AE3188002900D1F7
:1039200085E0EA88002A00D181E00B1C914200D991
:10393000131C9AB23380010049E08B88002B72D1AE
:10394000CB88002B6FD14D887F331D40A378032B8C
:1039500069D0384B257120001D60FFF772FF0223EC
:10396000002D00D10123A37061E08978314D2971C8
:10397000012958D8A378022B02D0032B07D052E09C
:10398000002943D0012103232170A37010E00029F6
:1039900006D102232170A3702000FFF71FFF35E03E
:1039A0002178012932D02000FFF718FF29792170F2
:1039B0002000FFF708FF29E0CA8800210191012AB1
:1039C00032D1A378022B14D0032B2DD1210020005B
:1039D000FFF70CFF2BE00021A3780191023B012BA4
:1039E00022D801230193A3688B4201D003230193C2
:1039F000022201A9EBE74B88012B18D1A360230019
:103A0000FC33DB6D29009B68200098472000FFF7FE
:103A100018FF0CE0A378023B012B04D84B88012B44
:103A200005D10023EAE70021200000F085FD0020F9
:103A300076BDC0469807002070B5837804000E005C
:103A4000032B11D10B79012B0ED80300FC33DB6D56
:103A50009B689847F3880500002B0AD1002808D1FD
:103A60002000FFF7EEFE04E00021200000F064FDDE
:103A70000025280070BD37B500220D00019204001A
:103A80006B788888C1B2012B11D0934229D0032BC7
:103A90004CD1A378022B2AD0032B20D16B88002B8A
:103AA00012D14B0610D0200000F046FD0CE0A378A8
:103AB000022B1CD0032B12D16B88002B04D14B0698
:103AC00002D0200000F06CFD2300FC33DB6D2900E8
:103AD0009B68200098472000FFF7B3FE26E0110006
:103AE00021E0A278022A02D0032A03D01AE04B0672
:103AF00019D11BE02823020609D57F2211404B4330
:103B0000E3189B7E002B07D00123019304E0594367
:103B10006118BA310B78F5E7022201A92000FFF7FE
:103B200065FE03E01900200000F006FD00203EBD08
:103B3000037C0B70437C4B70C37C827C1B02D318CC
:103B40004B80437D027D1B02D3188B80C37D827D19
:103B50001B02D3189BB2CB80C36301234370704711
:103B600010B5002100F0E8FC10BD30B5002300289E
:103B700018D0C45C5D1C002C01D02B00F9E7DBB22F
:103B80005B00023313800B7003234B70013B0578FD
:103B9000002D07D05A1CCD54D2B202330130DBB213
:103BA0008C54F4E730BD000070B5074C2068FF2846
:103BB00007D0064B064A191D95681A68A847FF23C7
:103BC0002360002070BDC046740000209C080020C7
:103BD00008000020432301480B807047D0050108EE
:103BE00010B5C02300228121040000F039FB80239E
:103BF00000225B008221200000F032FB882300229B
:103C00005B000321200000F02BFB022340228121D6
:103C1000200000F040FB022340220321200000F09E
:103C20003AFB082282210323200000F034FB064BDC
:103C30001B689847054A40230C320321200000F0FE
:103C4000F0FB002010BDC046080000209C080020AA
:103C5000282370B5040059434118084DD031096834
:103C6000074B0C35280089B21B6998472A0040236E
:103C70000321200000F0D5FB002070BD9C0800202F
:103C80000800002010B50400812100F086FB03210C
:103C9000200000F082FB8221200000F07EFB024B1E
:103CA0005B689847002010BD08000020F8B560242C
:103CB0000B7806000D001C4028D0202C22D1CC8887
:103CC0004878002C18D05BB22449002B0BDA244B27
:103CD0000F1D220039009B689847EA8839003000A0
:103CE000FFF784FD06E01F4B10C118602200300072
:103CF000FFF790FD00242FE0194B22009B68210064
:103D0000984729E0FFF72CFF022425E04B780A2B87
:103D100013D00B2B18D0062B1ED14B8812491B1227
:103D2000212B07D1EB881A1C3A2B00D93A2292B2E8
:103D3000123105E009313A2202E0012207494C31F3
:103D40003000FFF753FD07E08B78002B02D1034BC7
:103D5000DC6401E0FFF704FF2000F8BD9C080020B0
:103D60000800002074000020D0050108204A70B52A
:103D7000136D1100002B02D00133136536E013657B
:103D800054321278012A31D080228C6D5200944234
:103D900000D18B658C6DCB6D9C4203D100235431D7
:103DA0000B7023E09C4202D9121B0A6601E01B1B28
:103DB0000B660B6EA2B2402B05D9403B40340B661C
:103DC0008C65402309E0E4188C6500240C66402BC8
:103DD00001D09BB201E001244C660C000125683142
:103DE00054348A188121257000F059FB002070BDE1
:103DF0009C080020154B70B51C0054342278190023
:103E0000012A20D11A6E002A08D1596E012903D146
:103E10005A668031130014E0227014E09B6D9CB24E
:103E2000402A05D94033403A8B650A66402305E0B5
:103E30008D6D93B252198A6500220A6668310A199B
:103E4000812100F02CFB002070BDC0469C080020A2
:103E5000014B18607047C046405C0040014B186041
:103E60007047C046445C004007239843014B1860EC
:103E70007047C046505C0040024B8000C01800688C
:103E800080B27047005C00400B00054A800080183B
:103E90000168044A1140194389B201607047C04665
:103EA000005C00408F89FFFF084B8000C01802684B
:103EB000074B13401022114200D0534020221142E0
:103EC00000D05340034A134303607047005C004036
:103ED000BF8F000080800000094B8000C01802687E
:103EE000084B134080225201114200D053408022DF
:103EF0009201114200D05340034A134303607047BC
:103F0000005C00408FBF000080800000044B8000F8
:103F1000C0180268034B1340034A13430360704701
:103F2000005C00400F0E000080810000044B800008
:103F3000C0180268034B1340034A134303607047E1
:103F4000005C00400F0F000080C00000044B8000A8
:103F5000C0180268034B1340034A134303607047C1
:103F6000005C00400F0F0000C0800000064B800086
:103F7000C01803685B0405D50268044B1340044A6B
:103F8000134303607047C046005C00400F0F000001
:103F900080C00000064B8000C01803685B0605D592
:103FA0000268044B1340044A134303607047C04641
:103FB000005C00400F0F0000C0800000044BC000F8
:103FC0001B689BB2C018034BC01801807047C046E5
:103FD000505C0040026000400C4BC0001B689BB26C
:103FE00018180B4BC0183E2908D94B09CA0601D135
:103FF000013B9BB2074A9B02134304E04B08CA07EC
:1040000000D501339B0203807047C046505C0040DE
:10401000066000400080FFFF30B5094DC0002B68EE
:10402000084C9BB2C3181B190124A14319802B68AB
:10403000A2439BB2C018044BC018028030BDC046DA
:10404000505C00400060004004600040054BC00030
:104050001B689BB2C018044BC01801239943018010
:104060007047C046505C00400060004010B5FFF74C
:10407000EDFF10BD054BC0001B689BB2C018044B80
:10408000C0180123994301807047C046505C00402E
:104090000460004010B5FFF7EDFF10BD30B50029FA
:1040A0001FD1204CC00021681F4B89B20918C918C4
:1040B0003E2A08D95309D50601D1013B9BB21B4DBD
:1040C0009B022B4304E05308D50700D501339B0224
:1040D0000B8023689BB21818154BC0183E2A11D8C4
:1040E00019E001291DD10F49C0000B680E4C9BB28D
:1040F000C3181B191A800B689BB2C0180C4BC01850
:1041000002800EE05309D20601D1013B9BB2074A5F
:104110009B02134304E05308D20700D501339B02EE
:10412000038030BD505C0040026000400080FFFF13
:1041300006600040054BC0001B689BB2C018044BD2
:10414000C01800888005800D7047C046505C004054
:104150000260004010B5FFF7EDFF10BD054BC00039
:104160001B689BB2C018044BC01800888005800DE6
:104170007047C046505C00400660004010B5FFF735
:10418000EDFF10BD002907D1094B8000C01802685F
:10419000084B1340084A08E0012908D1044B80006D
:1041A000C0180268034B1340044A1343036070476E
:1041B000005C00400F0F0000C080000080C00000C5
:1041C00010B5084B0132091A5210C918002A07D03D
:1041D000437804781B0223434352013A0230F5E747
:1041E00010BDC04600600040064B0132091A521053
:1041F000C918002A04D0435A013A03800230F8E774
:104200007047C0460060004010B503000024012044
:104210001C7198709C60D860FFF71AFE2000FFF7B1
:1042200017FE2000FFF71AFE2000FFF71DFEBF203B
:10423000024B00021860FFF70BFE10BD480A002079
:1042400010B501230024044A044913600C600321C3
:104250001160837010BDC046405C0040445C00406B
:1042600070B57F2528240E0605D529404C43210032
:104270001831441803E00D406C43B8340419002A87
:1042800002D1A272A38004E00122E3801B0CA2727F
:104290002381002070BDB0B57F25282480270D40E4
:1042A00065430F402C00002F05D018344519041920
:1042B0000120687604E04519B834B93504192F7027
:1042C000E2607F220A40E370227002D16262E26102
:1042D0002262002121616161A161A170032B10D8CC
:1042E0001800FCF78DFA020905078021890005E016
:1042F000002103E0C02100E08021C9001000FFF789
:10430000C3FDA37A2078002B18D16378A188002BF5
:1043100007D0FFF7ABFE2078FFF73CFE2078202186
:1043200026E0FFF7B7FEA1892078FFF755FE207839
:10433000FFF71CFEC021207889012AE0FFF7E6FD87
:1043400020782289E188FFF767FE65782078002DC4
:1043500011D1FFF70BFE2078FFF71CFE2078FFF746
:10436000F5FDC02120788901FFF7B6FD29002078EE
:10437000FFF79AFD0FE0FFF7F9FD2078FFF70AFE3F
:104380002078FFF7D3FD20780021FFF78DFD002175
:104390002078FFF7A1FD0020B0BD4AB270B52823F8
:1043A000002A05DA7F2421404B431833C41802E069
:1043B0004B43B833C418A67A65782078002E0BD109
:1043C000002D04D0FFF7E6FD2078310014E0FFF760
:1043D000CDFD2078290020E0002D10D1FFF7C6FD8B
:1043E0002078FFF7D7FD2078FFF7B0FD207829006F
:1043F000FFF772FD29002078FFF756FD0FE0FFF769
:10440000B5FD2078FFF7C6FD2078FFF78FFD2078F7
:104410000021FFF749FD00212078FFF75DFD002016
:1044200070BD73B505007F200140573848432818F8
:104430000C000100C8310A6002000026CC32136073
:10444000C4308E60016801968B4204D901910199B4
:104450005B1A136001E00193166028236343EB1895
:104460001A001800C2321278B830002A05D101991A
:10447000007889B2FFF7B0FD06E0019AB93392B235
:1044800019780078FFF70AFE28214C43C0212D1926
:10449000B83528788901FFF71FFD002076BDF7B5F4
:1044A0007F24070000202140573C4C433C19A26266
:1044B000626A01900E002176E3622063934204D980
:1044C0000192019A9B1AE36201E00193E0622825C0
:1044D00075437D19EB1C019ADB7F92B2002B09D149
:1044E000A98BA06AFFF76CFE0199287E89B2FFF7BD
:1044F00065FD17E0287E697EFFF7D0FD287EFFF777
:10450000BBFC430601D5298C00E0E98B019AA06A27
:1045100092B2FFF755FE28237343FB18597E187E8D
:10452000FFF730FE28214E43BF19387E0831FFF7D0
:10453000BBFC0020FEBD00004AB210B52823002AB3
:1045400004DA7F2211404B43183301E04B43B83368
:10455000C118087800280BD10D4A0E4B1068034093
:104560000D4843400D480343136001238B700CE05A
:1045700001234A788B70002A03D01021FFF794FCA6
:1045800003E080214901FFF7A7FC002010BDC046D1
:10459000005C0040BFBF00001010000080800000E1
:1045A0004AB270B52823002A05DA7F2421404B4304
:1045B0001833C41802E04B43B833C4186578207828
:1045C000002D08D0FFF7E6FC20783021FFF76CFCC7
:1045D0000023A37007E0FFF7C9FCC0212078890100
:1045E000FFF77AFCA570002070BD000010B50171C6
:1045F0000E480F4B02680F4C1A40224302600E48CF
:104600000E4C02681A40224302600D480D4C0268AD
:104610001A40224302600C4A106803400B480343CF
:104620001360802319430A4B196010BD005C0040E1
:104630000F0F000080800000045C004081800000BB
:10464000085C0040828000000C5C00408380000019
:104650004C5C00408021044A090213680B4313603C
:10466000012383707047C046585C0040034A044BE6
:1046700011680B401360002383707047585C004042
:10468000FF7FFFFF0023F0B585B002AAD380B44BB3
:104690001A6803AB91B21980120400D45DE10F21B6
:1046A0001A881140009100D082E01C881023AD4D83
:1046B0001C4011D12A68AC4B13402B60AB4D287EB7
:1046C000FFF748FDAB6A28631818A94BA8621B685E
:1046D00021005B6828003AE12B6802AA9BB2D380D4
:1046E000D3881B0519D5A14C2300B8331878FFF7E0
:1046F00045FD2300D03318602300BC330200198825
:104700009C48FFF771FD2A689B4B200013402B60EB
:10471000974B1B689B689847B9E702ABDB881BB2D5
:10472000002BB4DA2A68944B904C13402B60230082
:10473000B83318782700FFF721FDD037021E386004
:104740000BD023002600BC33C83619883068FFF729
:104750004BFD32683B68D3183360854B00211B68E2
:1047600020001B689847854BC4341A682168844B25
:1047700092B2D2183E2909D94B099BB2C90601D180
:10478000013B9BB27F499B020B4306E04B089BB267
:10479000C90701D501339BB29B0213802A687A4B6B
:1047A0001340C02292015340784A13432B606EE7B6
:1047B000009B02AA9F006B4BFF183B689BB2D38003
:1047C000D3881BB2002B68DA28243A686A4B674EFC
:1047D00013403B60009B5C43341923002500C23327
:1047E0001B78B8352878002B0CD1FFF7C7FC051EC5
:1047F0002AD02300C834BC33020019882068FFF790
:10480000F3FC21E0FFF738FB030028785B0406D5B2
:10481000FFF790FC051E0ED02300BE3305E0FFF726
:104820009DFC051E07D02300C033C83419882A0018
:104830002068FFF7D9FC2823009A00215343F3187E
:10484000B8331878FFF79EFC2821009B5943711854
:104850000A00D03213685B1913600B00C8331A6862
:1048600052191A6004331B68002B04D00800C430AE
:10487000006885420BD22823009A30005343F31876
:10488000B83319783A4B1B681B68984705E0B83174
:104890009BB209783000FFF7C4FD802202ABDB88B1
:1048A000134200D1F3E63A682F4B009C13403B6063
:1048B00028277C432D4D009A2C19E31CDB7F013205
:1048C0002E000192207E002B0BD1FFF743FC021E2D
:1048D000206326D0019BA18B5F43E859FFF770FC52
:1048E0001FE0FFF7C9FA0300207E5B0606D5FFF73D
:1048F00021FC021E20630CD0E18B05E0FFF72EFCAB
:10490000021E206305D0218C019B5F43E859FFF70D
:1049100057FC2823009A01215343F318187EFFF710
:1049200031FC2824009F6743F719387EFFF712FCFB
:10493000019B38635C432B591A182A513419636858
:10494000397E002B05D13000094B1B685B68984706
:104950009DE63000FFF7A3FD99E605B0F0BDC04627
:10496000445C0040005C00400F8F000024060020E3
:1049700054000020340600208F0F0000505C0040DF
:10498000066000400080FFFF8FBF000080800000B5
:10499000F7B56B469D1D00232C4C2B8023682C4EB5
:1049A0009BB22B80802331681B022A880B401A425D
:1049B00001D0FFF767FE2B88326813405B050BD5EB
:1049C000244B254F2360254B38001B681B699847F3
:1049D00000213800FFF70AFE2A8831680A40930454
:1049E00001D51F4B23602B880B40DB0409D51D4BE1
:1049F00019482360194B1B689B6998470020FDF7F5
:104A00001BFD2B88326813401B0508D5164B124836
:104A10002360124B1B685B699847FDF7F3FC2B88FA
:104A2000326813409B0506D5104B0B4823600B4B97
:104A30001B68DB6898472B8832681340DB0504D578
:104A40000B4B07202360FDF7F7FCF7BD445C0040EB
:104A5000480A0020FFFB000024060020540000202C
:104A6000FFDF0000FFEF0000FFF70000FFFD000088
:104A7000FFFE0000074B10B5984209D180200121AC
:104A8000800000F0E7FD80200021800000F0E2FDC2
:104A900010BDC0460024014030B58A680D68C36867
:104AA0001543CA68064C15430A69234015434A69F1
:104AB00015432A001A430B795B031343C36030BDCF
:104AC00003D2FFFF0023036003718360C3600361AF
:104AD0004361704783680122002900D102221343F9
:104AE0008360704701617047064B002804D0802125
:104AF0001A6809040A4302E01968034A0A401A6066
:104B00007047C04608270140FFFF7FFF064B002883
:104B100004D080211A68C9030A4302E01968034AD5
:104B20000A401A607047C04608270140FFFFBFFFD8
:104B3000836A19438162426170470000002904D0F2
:104B40008022C3689201134302E0C268014B134004
:104B5000C3607047FFDFFFFF002904D08022C368D5
:104B60005202134302E0C268014B1340C360704716
:104B7000FFFFFEFF8021826809060A43F02103003F
:104B8000826009029A680139D20FD207002901D048
:104B9000002AF7D100209A68824200DB186C704727
:104BA0001022836813438360704704228368134391
:104BB00083607047006C80B270470122C36800298F
:104BC00001D0134300E09343C36070470222C368DF
:104BD0009343C360C3681943C1607047CB0103D5D9
:104BE0008068044B184000E000680840411E88417E
:104BF000C0B27047FFFFFFFE016070474368026864
:104C000000200A4203D01940481E8141C8B27047B3
:104C100001607047094A30B58240094D2B689343C3
:104C20001C004A680B6813438A681343CA6813431D
:104C30000A691343834023432B6030BDFE3F0000CD
:104C40001C0001400023036043608360C3600C3399
:104C500003617047064A0123002903D0834011688D
:104C60000B4303E08340116899430B0013607047C6
:104C70001C000140044B20211A68002801D00A437F
:104C800000E08A431A607047006C0040044B4021EA
:104C90001A68002801D00A4300E08A431A6070476E
:104CA000006C0040044B054A59680A405A605A6833
:104CB000104358607047C046006C0040FFFFFFCFB4
:104CC00010B58024A4052000012100F0CFFC0021B4
:104CD000200000F0CBFC10BD084A30B58240084CE3
:104CE0004D68236893431A000B682B438D68C9688D
:104CF0002B430B4383401343236030BDFE0F000062
:104D000000740040064A0123002903D08340116843
:104D10000B4303E08340116899430B001360704715
:104D200000740040074A00090123002903D0834092
:104D300051680B4303E08340516899430B00536073
:104D40007047C04600740040002382B00193054BB9
:104D50000193019B083318180190019B196002B060
:104D60007047C04600740040002382B00193054B99
:104D70000193019B143318180190019B196002B034
:104D80007047C0460074004002682C4B134003601B
:104D90000023036043608360C360294B984201D1C4
:104DA000284A27E0284B984201D1264A29E0274B80
:104DB000984201D1234A2BE0254B984201D1214A48
:104DC0002EE0244B984201D11E4A31E0224B9842FA
:104DD00004D1F0211B4A090453682CE01F4B984270
:104DE00004D1F021174A0905536824E01C4B98426E
:104DF00003D11C4A53680F211DE01B4B984203D17D
:104E0000184A5368F02116E0184B984204D1154A0D
:104E1000F021536809010EE0154B984204D1114A64
:104E2000F0215368090206E0124B984205D10D4A61
:104E3000F021536809030B4353607047FEFF0000E5
:104E400008000240000002401C0002403000024006
:104E500044000240580002406C00024080000240C2
:104E600008040240000402401C04024030040240D6
:104E7000440402405804024002680D4B10B51A4029
:104E80000C6A8B6823430C6923434C6923438C6968
:104E90002343CC6923434C6A23438C6A2343134343
:104EA0000360CB6843600B6883604B68C36010BDD0
:104EB0000F80FFFF002903D001220368134302E0A3
:104EC0000268024B134003607047C046FEFF0000BB
:104ED00041607047406880B270470368002A02D082
:104EE0001943016001E08B4303607047C30001D5A3
:104EF000044B00E0044B1B680340581E8341D8B2AA
:104F00007047C0460004024000000240C30001D5C3
:104F1000024B00E0024B58607047C046000402405C
:104F200000000240837910B50168002B24D0CA43E9
:104F3000154B1C6814401C605C6822405A60027962
:104F4000D21814682143116001689C68CA43144058
:104F50009C60DC682240DA604279102A06D19A68A7
:104F60000A439A60DA681143D9600BE0064BD31804
:104F70001A681143196005E00379034A9B181A68FF
:104F80008A431A6010BDC04600040140034B5B69B0
:104F90001840431E9841C0B27047C046000401400B
:104FA000014B58617047C04600040140044B1A6928
:104FB000120603D5034A5A60034A5A607047C04636
:104FC0000020024023016745AB89EFCD8021024AD2
:104FD00013690B431361704700200240014BD860F6
:104FE0007047C046002002400120074BDA680242A9
:104FF00009D1DA680018D20605D4D868042318400D
:10500000421E9041181A70470020024010B504005B
:10501000FFF7EAFF012805D1002C05D0FFF7E4FFD8
:10502000013CF7E7002C00D1052010BD70B506004B
:10503000B0200003FFF7EAFF042810D10225402228
:10504000B020074C000323692B4323616661236969
:1050500013432361FFF7DAFF2369AB43236170BD7C
:1050600000200240F7B50600B020002300030D0029
:105070000193FFF7CBFF042818D10127B0200C4C77
:10508000000323693B432361ABB23380FFF7BEFFCC
:10509000042808D1B02002360196019B2D0C1D80FA
:1050A0000003FFF7B3FF2369BB432361FEBDC04686
:1050B00000200240F7B50B680193002301249C40B7
:1050C000019A224094422CD10A79551E012D15D8FF
:1050D0005E00B44603266746BE408568B5438560DA
:1050E0004E798568BE402E4386608588A5438580BD
:1050F0008C7985889C402C43A4B2848003245D0075
:10510000AC40E443AA400668264006600668324385
:105110000260C2681440C460CA79C468AA402243CD
:10512000C2600133102BC9D1F7BD038A19400800B2
:10513000411E8841C0B27047816170470185704748
:10514000072310B50F240B409B009C409A40C910C8
:1051500089004018016AA1430162016A0A430262A0
:1051600010BD00000B4B10B50121984207D18020E3
:10517000800300F07BFA80200021800306E080207D
:10518000C00300F073FA80200021C00300F06EFA23
:1051900010BDC0460054004030B5012403688A6841
:1051A000A343036003681502114A13404A682B4366
:1051B000134303600F4A0B681A40026103680A69CF
:1051C0002343036000238360C3608B691343802201
:1051D000836083681202134383600368CA681343C1
:1051E00003604268044B13404A691343436030BD77
:1051F000FFE0CF00FFFFFFF0FF7FFF0780220023CB
:105200001202036043608360C36003614261836193
:10521000704701220368002901D0134300E0934343
:1052200003607047002904D080224368D2011343F1
:1052300002E04268014B134043607047FFBFFFFF2D
:1052400030B514004568064A89052A40039D890D3A
:105250002A4313430B4322041A43426030BDC04625
:10526000009800FC81627047406AC0B27047836951
:1052700019400800411E8841C0B27047C1617047A3
:10528000837870B50178002B1BD08B10104A032651
:105290009B009B18FF223140B1401600C0248E4075
:1052A000A4001D59B5434678B60132408A402A43CE
:1052B0001A511F2302781A401E3B9340044A136080
:1052C00005E01F2319401E3B8B40024AD36770BD87
:1052D00000E100E004E100E0064B002804D080215A
:1052E0001A6849000A4302E01968034A0A401A6032
:1052F0007047C04600700040FFFEFFFF044B5A6835
:10530000002902D01043586001E082435A60704780
:105310000070004010B503240C4A1368A3431843DF
:10532000106004200A4B1A6902431A61012901D155
:1053300030BF02E0022903D120BF1A69824302E094
:1053400002211A690A431A6110BDC046007000406C
:1053500000ED00E00221054A13680B431360044A84
:10536000491813690B43136130BF70470070004048
:1053700000ED00E0034B5B681840431E9841C0B24B
:105380007047C04600700040024A8000136818430E
:105390001060704700700040044B01215A6A0028D9
:1053A00001D00A4300E08A435A627047001002406D
:1053B000064B002804D080211A6849040A4302E001
:1053C0001968034A0A401A607047C046001002403C
:1053D000FFFFFFFE064B002804D080215A6B4902D4
:1053E0000A4302E0596B034A0A405A637047C046B9
:1053F00000100240FFFFFEFF0321034A53688B4366
:10540000184350607047C04600100240024B586875
:105410000C2318407047C04600100240F021034A98
:1054200053688B43184350607047C04600100240D9
:105430008021044B1A6B8A431A631A6B104318635A
:105440007047C04600100240F8B50C235A4D0400C6
:1054500068681840FBF7D4F9212121210721212177
:10546000092121211F00554B18E00F21C023686836
:105470006A68800C08405B02861C1A4201D15048C1
:1054800006E04D4B4D48DB6A19400131FBF7CCF982
:105490007043206004E04B4B00E04B4B0020236046
:1054A00021686B680A00494E1B061B0FF35CDA404B
:1054B000130062606A685205520FB25CD340A36069
:1054C0002A6BD20501D4424A06E03B4A5268520494
:1054D00001D45A0800E09A08E2602A6B520601D40F
:1054E0003C4A01E08022120222612A6BD20602D4D9
:1054F000354A626100E0616103222F6B2E4E174234
:1055000001D1A36112E0376B1740012F01D1A161D6
:105510000CE0376B1740022F02D18022120204E008
:10552000366B3240032A01D1274AA261C0222F6B79
:105530009202174201D1E36119E01F4E376B8026BA
:1055400017407602B74201D1E16110E01A4E376B85
:1055500080261740B602B74202D18022120205E02F
:10556000154E366B1640964201D1174AE261C022B1
:105570002F6B1203104E174215D08027336BFF029A
:105580001340BB4201D121620EE08021336B09033D
:1055900013408B4202D180231B0204E0336B134083
:1055A000934201D1084B23622B6B1B0602D4054B9F
:1055B000636200E06062F8BD001002400024F40065
:1055C00000093D00006CDC0200127A009C00002003
:1055D000809FD50012800000024B1A6A10431862A7
:1055E0007047C04600100240064B002804D08021BE
:1055F0001A6A09020A4302E0196A034A0A401A6257
:105600007047C04600100240FF7FFFFF044B5A69FD
:10561000002902D01043586101E082435A6170476B
:1056200000100240044B9A69002902D0104398618F
:1056300001E082439A61704700100240044BDA692E
:10564000002902D01043D86101E08243DA6170473B
:1056500000100240044BDA68002902D01043D860E1
:1056600001E08243DA60704700100240044B1A697F
:10567000002902D01043186101E082431A6170478B
:10568000001002404211094B01D11B6808E0012AB9
:1056900001D11B6A04E0022A01D15B6A00E05B6B66
:1056A0001F221040C34001201840704700100240E4
:1056B0000023402213B501930B4B0120D9681142FE
:1056C00010D1012180244942D960E401D8680199B0
:1056D000013101910199A14201D01042F6D0D86860
:1056E0004006C00F16BDC046002800408021024A77
:1056F000D3688B43D360704700280040CA2370B53D
:105700000F4C05006362773B6362FFF7D1FF002314
:10571000984211D04022A3689343A360A3682A68EB
:105720001343A360AB6823616B6822691B041343B6
:105730002361FFF7DBFF0123FF221800626270BDC7
:10574000002800400023202213B501930E4B0120B6
:105750009968114217D1CA21802459627739596258
:10576000D9689F308143D9602402D86801990131FA
:1057700001910199A14201D01042F6D0FF22D868D0
:105780005A628006C00F16BD00280040014B986A7F
:105790005B68704700280040CA220721064B5A6206
:1057A000773A5A629A688A439A609A681043FF224D
:1057B00098605A627047C04600280040CA22044BD5
:1057C0005A62773A5A62AC3258615A627047C046A0
:1057D000002800400023CA2213B50193114B5A62DE
:1057E000773A5A62002806D080219A68C9000A4395
:1057F0009A60012012E099680B4A80240A40042133
:105800009A60E401D868019A01320192019AA24299
:1058100001D00842F6D0D8684007C00FFF225A6274
:1058200016BDC04600280040FFFBFFFF002382B0EA
:105830000193054B80000193019BC0180190019BCF
:10584000196002B07047C04650280040002382B063
:105850000193054B80000193019BC0180190019BAF
:10586000186802B07047C04650280040CA220F4B4B
:1058700010B55A62773A5A624F3A002908D00400AC
:105880009968944321439960196C02400A4308E0E7
:10589000040099689443A1439960196C02409143B4
:1058A0000A001A64FF225A6210BDC0460028004058
:1058B0000C4930B50D6C8A68CC680100830CD94066
:1058C0000423C90B2B4002400B4013430022934298
:1058D00005D0A3B200091840431E9841C2B210007F
:1058E00030BDC04600280040000980B2802203007D
:1058F0001343D843034910B5CC6822401043C86015
:1059000010BDC046002800400E4B10B598420AD189
:10591000802001214001FFF79DFE802000214001F1
:10592000FFF798FE0CE0084B984209D18020012136
:10593000C001FFF79BFE80200021C001FFF796FE0B
:1059400010BDC0460030014000380040C12310B5F2
:1059500004889B010A881C40CB891343CA881343DF
:105960000A8913434A8913438A89134323430380D3
:105970008288094B13408A881343042283800B8A50
:105980000382038893434A8813430380828B034B2B
:105990001340838310BDC046FFF0FFFFFFF7FFFFFA
:1059A00040220388002901D0134300E09343038081
:1059B000704700008288034B13408380838819431B
:1059C00081807047FFEFFFFF01737047007BC0B21B
:1059D00070478388002A02D01943818001E08B43FD
:1059E00083807047038919400800411E8841C0B276
:1059F00070470000032310B50F240B409B009C4010
:105A00009840054A8910890089188A68A2438A60EB
:105A10008A681043886010BD0000014030B50388DB
:105A2000154C9BB2A04206D08022D205904202D0F3
:105A3000124A904203D1702293434A881343104A7A
:105A4000904203D00F4A0D8913402B4303804B68CB
:105A5000C3620B880385A04208D00B4B984205D047
:105A60000A4B984202D00A4B984201D18B7A0386A6
:105A70000123838230BDC046002C01400004004059
:105A800000100040FFFCFFFF0040014000440140C7
:105A90000048014001235B424360002303800381EF
:105AA00043808372704701858282704741627047EC
:105AB000C162704708220388934303800388194317
:105AC0000180704701220388002901D0134300E0C0
:105AD0009343038070470630002904D08023C28F8F
:105AE0001B02134302E0C38F5B045B0CC387704748
:105AF000012270B57324038C93430384038C828842
:105B0000058B92B2A5430C8825430224A3431E00B3
:105B10004C888B892343104C3343A04208D00F4C50
:105B2000A04205D00E4CA04202D00E4CA0420DD196
:105B30000824A343CC890E8A23430424A3438C88DE
:105B40002343094C22404C8A3443224382808A6892
:105B500005834263038470BD002C01400040014076
:105B60000044014000480140FFFCFFFF028C1A4B3B
:105B700070B5134003847323048C8288858B8E89CF
:105B80009D430B8836021D43144B92B21C404B8838
:105B900034431B02A4B21C43A3B2114CA04214D143
:105BA000104C2340CC89240223430F4C23408C8883
:105BB000240223430D4C9BB222400C8A2401224331
:105BC00094B24A8A12011443A2B282808A68858301
:105BD000C263038470BDC046FFFEFFFFFFFDFFFFF1
:105BE000002C0140FFF7FFFFFFFB0000FFCFFFFF8E
:105BF000002303804380838083608381C381038289
:105C000043827047028A838900209BB2114203D0ED
:105C10001940481E8141C8B27047C94389B2018208
:105C200070478389002A02D01943818101E08B43A8
:105C30008381704710B5FFF7F4FF10BD7022838891
:105C40009343838083881943818070470122F0B594
:105C50000D0003688BB0934303604268224B04003D
:105C600013408A68134343600268204B1A404B6814
:105C7000C9680B4329690B431343036082681C4BBB
:105C800013406A69134383606846FFF7DDFB194BD5
:105C9000069E9C4208D0184B079E9C4204D0174B8E
:105CA000089E9C4200D0029E23682F681B0400D5EA
:105CB000760039003000FAF7B7FD390005003000F2
:105CC000FAF738FE00237F08B9425B41ED182368DC
:105CD0001B0404D50A4B2A07520F1D401543ADB2D1
:105CE000A5810BB0F0BDC046FFCFFFFFF3E9FFFF7A
:105CF000FFFCFFFF00380140004400400048004026
:105D0000F0FF000001220368002901D0134300E0E6
:105D10009343036070470000002904D08022036889
:105D20001202134302E00268014B13400360704704
:105D3000FF7FFFFFC905C90D01857047808CC00535
:105D4000C00D7047FF2310B50C121C401940FE3BDC
:105D50008B40022C01D1043002E0032C00D108302A
:105D6000002A02D00268134302E002689A4313003B
:105D7000036010BD074B1B78002B0AD0162805D0F6
:105D80001E2805D0102804D1112002E0172000E0C1
:105D90001F2070474C0A0020014B18787047C046FE
:105DA0004C0A002070B5041E074D08D02B78002B3C
:105DB00001D108F0C7FE2C7003F040F870BD01203F
:105DC00000F09CFFF7E7C0464C0A0020014B18701A
:105DD0007047C0464C0A002010B50121002009F090
:105DE0001BFB10BD7047000070B509F02AFA09F0DE
:105DF00095F904F0F5FB00F02DFF06F0B5FA09F077
:105E000001F909F07DFB002009F0E0FA09F084FFB8
:105E100000F0C0FD09F0E2F9FFF7DEFF04F056FDE7
:105E2000614C207909F0A8FFFFF7D6FF06F03EFE8F
:105E3000402009F061F8FFF7CFFF207907F0C6FC9A
:105E400004F0C8FB2500061E012E28D108F01CFA1C
:105E500007F0D9FC06F034FE00F088FD041E12D0D5
:105E600005F078FA041E0CD108F0C8F809F074FEA9
:105E700009F052FE002801D0200000E0300000F0C0
:105E800047FA032009E005F065FA002804D0200055
:105E900000F0C0FC022000E0300000F04DFDFFF7F4
:105EA0009BFF04F0BBFB002805D008F0EDF907F0DC
:105EB000D1FF04F0C9FCFCF7B9F9FFF78DFF07F03B
:105EC00045FAFFF769FF002805D0AB1CD87F08F022
:105ED000A3FE08F037FE002009F07AFB09F0A4FDCC
:105EE000FFF77AFF07F068FB01F0B4FB08F05AFAFD
:105EF000FFF772FF04F06EFB002803D1287907F04A
:105F00009DFF01E007F0C0FFFFF766FF04F08CFE85
:105F100004F006FB00F0F8FCFFF75EFF002009F03C
:105F20006BFA08F085FF08F0ADFF07F044FF04F0BE
:105F30001DFB06F0C5F904F0ABFA09F0C5FA06F04E
:105F400043FD06F0DFFE09F0A3F808F05DFF00282E
:105F5000EDD009F075F904F033FB06F0BFFD03F056
